:020000040800F2
:10000000D8040020A1010008671A0008A3190008FD
:10001000651A0008770700085D220008000000004C
:10002000000000000000000000000000791D000832
:10003000BD08000800000000C51A00087B1D00086C
:10004000BB010008BB010008BB010008BB010008A0
:10005000BB010008BB010008BB010008BB01000890
:10006000BB010008BB010008BB010008BB01000880
:10007000BB010008BB010008BB010008BB01000870
:10008000BB010008BB010008BB010008BB01000860
:10009000BB010008BB010008BB010008BB01000850
:1000A000BB010008BB010008BB010008BB01000840
:1000B000BB010008BB010008BB010008BB01000830
:1000C000BB010008BB010008BB010008BB01000820
:1000D000BB010008BB010008BB010008BB01000810
:1000E000BB010008BB010008BB010008BB01000800
:1000F000BB010008BB010008BB010008BB010008F0
:10010000BB010008BB010008BB010008BB010008DF
:10011000BB010008BB010008BB010008BB010008CF
:10012000BB010008BB010008BB010008BB010008BF
:10013000BB010008BB010008BB010008BB010008AF
:10014000BB010008BB010008BB010008BB0100089F
:10015000BB010008BB010008BB010008BB0100088F
:10016000BB010008BB010008BB010008BB0100087F
:10017000BB010008BB010008BB0100080000000033
:10018000BB010008BB010008DFF810D000F072FAD4
:10019000004800476D2B0008AFF30080D804002012
:1001A0000648804706480047FEE7FEE7FEE7FEE711
:1001B000FEE7FEE7FEE7FEE7FEE7FEE7091E0008B2
:1001C000890100082DE9F05F0546002092469B4614
:1001D00088460646814640241BE02846414647465D
:1001E000224600F074F853465A46C01A914110D383
:1001F00011461846224600F05BF82D1A67EB0108FD
:100200004F4622460120002100F052F817EB00096A
:100210004E41201EA4F10104DFDC484631462A4647
:10022000434600F000B830BCBDE8C09FD2B201E048
:1002300000F8012B491EFBD270470022F6E710B5EB
:1002400013460A4604461946FFF7F0FF204610BD44
:10025000421C10F8011B0029FBD1801A704700F0E6
:10026000004230F000400AD0C10D01F56071C0F3CA
:10027000160042EA0151C2084007114370470020AE
:100280000146704730B50B4601460020202201246C
:1002900009E021FA02F59D4205D303FA02F5491B54
:1002A00004FA02F52844151EA2F10102F1DC30BD6A
:1002B000202A04DB203A00FA02F100207047914026
:1002C000C2F1200320FA03F3194390407047202A1B
:1002D00004DB203A21FA02F00021704721FA02F3F0
:1002E000D040C2F1200291400843194670472DE9E1
:1002F000FE4F804681EA0300C00F0C46009021F0BB
:10030000004123F00045B8EB0200A94105D2404668
:10031000214690461C460B46024623F000401043FF
:1003200047D0270DC7F30A00C3F30A510290401AC1
:10033000019040286BDAC3F3130040F4801B00984F
:10034000924620B10023D2EB030A63EB0B0B01981A
:100350005946C0F140025046FFF7AAFF06460D4637
:1003600050465946019A00F097F910EB0800614198
:10037000002487EA115284EAE7731A4340D0009AB6
:1003800062B3019A012A4FEA075215DC001B61EBA8
:1003900002014FF0004202EA0752CDE90042001C80
:1003A00041F5801132462B4600F097F903B000F07A
:1003B00045B840462146F9E7001B61EB0201001CED
:1003C00041F5801300185B412018A2F5001747EB98
:1003D000030140EAD570B6196D4111E06D084FEA8E
:1003E000360645EAC0754FEA0752001B61EB020171
:1003F000001C41F5801149084FEA300000195141B5
:1004000032462B4603B000F01CB800F057B90098F4
:10041000012240000023D0EB020263EBE07300985E
:1004200021464FEAE074B8EB000061EB0401E9E714
:1004300083F000435BE781F0004158E730BCBDE842
:10044000C08F30BCBDE8C04FFFF7DFBF2DE9FE4FC6
:1004500081EA030404F0004421F0004100944FF0CD
:10046000000B23F0004350EA01045ED052EA03047B
:100470005BD0C3F30A54C1F30A552C44A4F2F334FD
:100480000194A0FB0254C1F3130141F48011C3F3A2
:10049000130343F4801301FB024400FB034E840A60
:1004A000970A44EA815447EA8357A4FB07680295F8
:1004B0008D0A05FB07854FEA932C04FB0C54270596
:1004C000029D4FEA065847EA1637B5EB08056EEB72
:1004D000070C870E920E47EA811742EA8312A7FBA8
:1004E0000201B6EB0B0164EB00042B0D43EA0C3365
:1004F0005E1844EB1C50DA465146E7FB0201C5F397
:1005000013044FEA0B3343EA14534FEA0432019CBD
:1005100043EA0603A4F10C040294009CCDE900B464
:1005200000F0DBF803B000F003B800200146F9E763
:1005300030BCBDE8C08F2DE9F04D81EA030404F022
:10054000004B21F0004514464FF0000A23F0004113
:1005500050EA050220D054EA01021DD0C5F30A5723
:100560000246C5F31303C1F31300C1F30A5640F466
:10057000801543F48013A7EB0608101BD64608F23B
:10058000FD3873EB050002D308F1010801E0921871
:100590005B41B8F1000F03DA00200146BDE8F08DA1
:1005A00000204FF48011064684460EE0171B73EBC3
:1005B000050705D3121B63EB050306434CEA010C48
:1005C00049084FEA300092185B4150EA0107EDD12B
:1005D00052EA030012D082EA040083EA05010843CC
:1005E00005D0101BAB4106D20122002306E00022F9
:1005F0004FF0004302E06FF0010253101AEB0600C7
:100600004CEB085110EB0A0041EB0B01BDE8F04D3B
:1006100000F054B8C1F30A52C1F3130140F2FF33A2
:1006200041F480119A4202DA00200146704740F2FC
:1006300033439A42A2F2334202DC5242FFF747BEF2
:10064000FFF736BE30B5041E71F1000404DB4FF035
:100650000044404264EB0101141E73F1000405DB09
:100660001C464FF00043524263EB0403994208BF1B
:10067000904230BD064C074D06E0E06840F00103B3
:1006800094E8070098471034AC42F6D3FFF780FD9A
:10069000782C0008982C0008202A06DBCB17203A7B
:1006A00041FA02F043EAE07306E041FA02F3D04077
:1006B000C2F12002914008431946704710B5141E3C
:1006C00073F1000408DA401C41F1000192185B410B
:1006D0001A4301D120F0010010BD2DE9F04D9246E2
:1006E0009B4611B1B1FA81F202E0B0FA80F22032F9
:1006F0009046FFF7DDFD04460F4640EA0A0041EA56
:100700000B0153465A46084313D0114653EA0100E1
:1007100019D0C8F140025046FFF7D9FD05460E46F4
:10072000504659464246FFF7C3FD084305D0012015
:1007300004E020463946BDE8F08D0020054346EA36
:10074000E0762C4337430A986305E40AA0EB0800DF
:100750000022FD0A44EA47540A3002D5002001462F
:10076000E9E7010510196941DDE90845001969410A
:10077000BDE8F04DA2E7FEE77CB505460C4600203B
:1007800001F072F9002001F093F94FF4FA7000F0D3
:1007900097F8012001F08CF91E2000F091F801205B
:1007A00001F062F9684600F03FF800231A466846F7
:1007B000815C521C1944D2B2CBB2042AF8D39DF802
:1007C0000400984219D1BDF80200F2EE040A40BAC2
:1007D00000EE100ABDF800100120B8EE400A49BA38
:1007E00080EE201A00EE101AB8EE400A85ED001ACD
:1007F00080EE201A84ED001A7CBD00207CBD000034
:10080000084A10B5506000205180012404FA00F31A
:100810000B4201D0107010BD401CC0B21028F5D39F
:1008200010BD0000000000202DE9F0410646002424
:100830002746282000F044F801F02EF90028FBD0CC
:1008400001F02AF90028FBD11F254FF0010800BF55
:1008500001F022F90028FBD0282000F031F801F047
:100860001BF910B108FA05F0044301F015F900284E
:10087000FBD16D1E6DB2002DEADA072501F00CF9EF
:100880000028FBD0282000F01BF801F005F918B172
:1008900008FA05F03843C7B201F0FEF80028FBD192
:1008A0006D1E6DB2002DE9DA200E3070200C7070D4
:1008B000200AB070F4703771BDE8F0817047000015
:1008C0000449054A0968B1FBF2F14143491EFDD2D2
:1008D000704700001C000020C0C62D0072B6FEE765
:1008E00070B5044600F04CF90546601C02D004487F
:1008F0000078044400F044F9401BA042FAD370BDD4
:10090000100000202DE9F04FDFF83492002309F1A8
:10091000040A012403250AF1040B87B00F270BF109
:10092000040E04E104FA03F632407CD0D1F804C08E
:10093000BCF1010F08D0BCF1020F05D0BCF1110FC2
:1009400002D0BCF1120F29D1D0F808C0CDF800C0F8
:100950004FEA430C05FA0CF8CDF80CC0DDF800C0E6
:100960002CEA080CCDF800C0D1F80C80DDF80CC0E2
:1009700008FA0CF8DDF800C048EA0C08C0F8088056
:10098000D0F8048091F804C028EA0608CCF3001CD3
:100990000CFA03FC4CEA080CC0F804C0D1F804803F
:1009A0006FEA080C5FEA8C7C09D1D0F82CC02CEAE5
:1009B000060CC8F3C0069E4046EA0C06C662D0F894
:1009C0000CC04FEA430805FA08F62CEA060CCDF8ED
:1009D000148002968E6806FA08F646EA0C06C6608F
:1009E0004E68022E01D0122E15D1DE0800EB8606CD
:1009F0000396366A4FEA437C4FEADC6807FA08FC44
:100A000026EA0C06D1F810C00CFA08FC4CEA060CD9
:100A1000039EC6F820C00668DDF808C026EA0C066A
:100A200091F804C000E081E0DDF814800CF0030CC4
:100A30000CFA08FC4CEA060CC0F800C04E68F60040
:100A400074D5404ED6F860C04CF0010CC6F860C0BA
:100A5000366E23F0030C06F0010600963A4E66440B
:100A60000296D6F808C09E074FEA167807FA08F6ED
:100A70002CEA060CB0F1904F04D0344EB04203D1B2
:100A800001261BE0002619E0314EB04201D10226BA
:100A900014E0304EB04201D103260FE02E4EB0429A
:100AA00001D104260AE02D4EB04201D1052605E011
:100AB0002B4EB04201D1062600E0072606FA08F6C2
:100AC00046EA0C06DDF808C0CCF80860D9F80060EA
:100AD000CC46D1F8048096435FEAC83800D5164367
:100AE000CCF80060DAF80060D446D1F80480964370
:100AF0005FEA883800D51643CCF80060DBF8006068
:100B0000DC46D1F8048096435FEAC82800D5164336
:100B1000CCF80060DEF80060F446D1F8048096431B
:100B20005FEA882800D51643CCF800605B1C0A6891
:100B300032FA03F67FF4F6AE07B000F013B8000007
:100B40000004014000100240000001400004004881
:100B500000080048000C004800100048001400483D
:100B60000018004830BCBDE8C08F0069084000D0C4
:100B7000012070470AB181617047816270470000AF
:100B8000014880687047000010000020024881681A
:100B9000027811448160704710000020094810B5A8
:100BA0000168002441F480710160032000F064F8C2
:100BB000002000F009F808B1012401E000F026F857
:100BC000204610BD0020024070B50E4E05460024A0
:100BD000307898B14FF47A71B1FBF0F00A490968A6
:100BE000B1FBF0F000F008FE40B9102D06D2002253
:100BF0002946501E00F020F8756000E001242046D0
:100C000070BD0000100000201C000020094808B53D
:100C1000016E41F001010166016E01F001010091D8
:100C2000816D41F080518165806D00F080500090B1
:100C300008BD000000100240F0B40E4B1B680C46CB
:100C4000C3F30223C3F10705042D00D90425191DA0
:100C5000072901D2002300E0DB1E012606FA05F178
:100C6000491E214099409E40761E16403143F0BCFB
:100C700001F00ABB0CED00E0064900F0070208682D
:100C80004FF6FF03184040EA0220034A1043086071
:100C9000704700000CED00E00000FA051649B0F5C1
:100CA000007F0868C0F3412009D0022805D00868F9
:100CB00020F4C06040F48060086000207047012884
:100CC000FBD0086820F4C06040F4007008600B4856
:100CD0003222006850430A4AB0FBF2F0401C00E0A8
:100CE000401E4A69520501D50028F9D148694005DE
:100CF000E3D5032070470000007000401C00002076
:100D000040420F000248006800F4C06070470000D5
:100D1000007000402DE9F84F044600270088E54D9B
:100D20003E46010504F1200B1DD5606E78B1B0F58B
:100D3000800F11D0B0F5000F04D0B0F5400F22D0D5
:100D400001270FE0E86840F48030E8601BE00021F4
:100D5000201D00F0B9FE03E00021584600F04AFFD4
:100D6000070010D03E462088C00426D5A06EC0B132
:100D7000B0F1807F1AD0B0F1007F0DD0B0F1407F8C
:100D800019D0012718E0D5F88800616E20F44000E2
:100D90000843C5F88800E6E7E86840F48030E8607A
:100DA00009E00021201D00F08FFE03E000215846DD
:100DB00000F020FF0746F7B13E46206880033AD591
:100DC000A86D4FF00008C00009D4A86D40F0805015
:100DD000A865A86D4FF0010800F080500090DFF882
:100DE000D8A2DAF8001041F48071CAF80010FFF7B9
:100DF000C7FE814610E0D5F88800A16E20F0407053
:100E00000843C5F88800D8E7FFF7BAFEA0EB090051
:100E1000022801D9032705E0DAF80000C005F3D560
:100E2000002F7CD04FEA0706B8F1000F03D0A86D61
:100E300020F08050A8652078C00707D0D5F888003A
:100E4000A16B20F003000843C5F8880020788007D4
:100E500007D5D5F88800E16B20F00C000843C5F8F1
:100E600088002078400707D5D5F88800216C20F04D
:100E700030000843C5F888002078000707D5D5F86A
:100E80008800616C20F0C0000843C5F88800207815
:100E9000C00607D5D5F88800A16C20F4407008433F
:100EA000C5F888002078800607D5D5F88800E16C61
:100EB00020F440600843C5F888002088800507D5E5
:100EC000D5F88800E16D20F440200843C5F888007B
:100ED0002088400507D5D5F88800216E20F4401001
:100EE0000843C5F888002078400607D5D5F8880063
:100EF000216D20F440500843C5F888002078000692
:100F000007D5D5F88800616D20F440400843C5F846
:100F100088002088C00509D5D5F8880000E01CE0CD
:100F2000A16D20F440300843C5F8880020884FF0B8
:100F3000006780044FF080684FD5D5F88800E16ED7
:100F400020F040600843C5F88800E06EB8423CD10C
:100F5000E86840F48010E8603FE0D5F8900010F4B5
:100F6000407015D0D4F88410814211D0D5F890008B
:100F7000D5F8901020F4407041F48031C5F89010FD
:100F8000D5F8901021F48031C5F89010C5F8900084
:100F9000C00710D0FFF7F4FD074641F2883906E09C
:100FA000FFF7EEFDC11B494501D903263CE7D5F803
:100FB00090008007F4D5D5F89000D4F8841020F480
:100FC00040700843C5F890002EE7404505D1012147
:100FD000201D00F079FD00B106462068000317D5FA
:100FE000D5F88800216F20F040600843C5F88800DC
:100FF000206FB84204D1E86840F48010E86007E050
:10100000404505D10121201D00F05EFD00B10646DE
:101010002068400317D5D5F88800616F20F0406044
:101020000843C5F88800606FB84204D1E86840F40E
:101030008010E86007E0404505D10121201D00F047
:1010400043FD00B10646208840041AD5D5F8880033
:10105000A16F20F040500843C5F88800A06FB0F1A0
:10106000805F03D0B0F1005F05D00AE00221201DAF
:1010700000F02AFD03E00221584600F0BBFD00B15C
:1010800006462088000407D5D5F88800E16F20F0D7
:1010900080400843C5F888002068C00307D555F88C
:1010A000880FD4F8801020F00040084328603046B4
:1010B00000F004B8001002400070004018BCBDE809
:1010C000E08F00002DE9F0470F46050058D0404E54
:1010D000306800F00700B84209D2306820F00700FD
:1010E00038433060306800F00700B84248D12878B3
:1010F000384CC0072CD06868032811D0022812D0C1
:10110000216898B1490500293ADAA16821F0030164
:101110000143A160FFF734FD804641F2883910E0B9
:1011200021688901EFE721688903ECE78907EAE78D
:10113000FFF726FDA0EB0801494502D90320BDE8D1
:10114000F087A068696800F00C00B0EB810FEFD168
:101150002878800705D5A068A96820F0F00008432A
:10116000A060306800F00700B8420BD9306820F06A
:10117000070038433060306800F00700B84201D003
:101180000120DCE72878400705D5A068E96820F44D
:10119000E0600843A0602878000706D5A0682969A8
:1011A00020F4605040EAC100A06000F03FF8A16860
:1011B000094AC1F30311515C01F01F01C8400749FE
:1011C000086007480068BDE8F047FFF7FDBC000075
:1011D0000020024000100240302C00081C000020BB
:1011E000140000200548064900688968054AC1F3D3
:1011F0000221515C01F01F01C84070471C00002013
:1012000000100240702C00080548064900688968F3
:10121000054AC1F3C221515C01F01F01C84070476B
:101220001C00002000100240702C000870B52549F9
:10123000002318468A68CC6812F00C0204F00306FA
:10124000214C4FEA640509D00C2A05D0042A32D07B
:10125000082A00D1284670BD012E10D10B681B074B
:1012600004D4D1F89430C3F3032302E00B68C3F332
:101270000313164E56F82330DAB10C2AEBD1C868A6
:1012800000F00300022818D0032818D01846CA68B6
:10129000CB68C2F30212C3F306234343521CB3FBD1
:1012A000F2F2C868C0F34160401C4000B2FBF0F0AD
:1012B00070BD184670BD204670BD2046E7E7284641
:1012C000E5E70000001002400024F400402C000874
:1012D0002DE9F84304006FD0FE4DA86800F00C061D
:1012E000E86800F003072078C00664D576B10C2EBC
:1012F00001D1012F0AD0A069002828687AD040F0D7
:1013000001002860FFF73CFC80465DE0286880070C
:1013100002D5A0690028DED0216A2868000703D51D
:10132000286800F0F00004E0D5F89400F02202EA0A
:101330001010814216D9084600F0E0FC00283BD18D
:10134000286840F0080028602868216A20F0F00032
:10135000084328606868E16920F47F4040EA012082
:10136000686016E0286840F0080028602868216A54
:1013700020F0F000084328606868E16920F47F40AD
:1013800040EA0120686026B9206A00F0B7FC002816
:10139000D5D1FFF74BFFA968CF4AC1F30311515CC8
:1013A00001F01F01C840CD490860CD480068FFF733
:1013B0000BFC00287ED12EE0CAE000BFFFF7E0FB67
:1013C000A0EB0800022876D828688007F6D52868A0
:1013D00040F0080028602868216A20F0F0000843E7
:1013E00028606868E16920F47F4040EA0120686075
:1013F00011E0FFE720F001002860FFF7C1FB804605
:1014000006E000BFFFF7BCFBA0EB08000228DAD81B
:1014100028688007F6D42078C00740D0082E18D05E
:101420000C2E01D1032F14D06068B0F5803F17D087
:10143000B0F5A02F286817D020F4803028602868E5
:1014400020F4802028606068E0B1FFF799FB8046B7
:1014500014E02868800322D56068002878D01EE058
:10146000286840F48030EDE740F480202860F7E7FA
:10147000FFF786FBA0EB08006428A4D82868800347
:10148000F6D50CE0FFF77CFB804605E0FFF778FB24
:10149000A0EB0800642896D828688003F6D420784A
:1014A00080073BD5042E11D00C2E01D1022F0DD078
:1014B000E06801E092E1F1E0002828681ED040F4E5
:1014C00080702860FFF75CFB07460CE02868400549
:1014D0000CD5E0680028C1D008E000BFFFF750FB42
:1014E000C01B022893D828684005F7D56868217C7E
:1014F00020F0F85040EA016068600FE020F480704E
:101500002860FFF73DFB074605E000BFFFF738FB0B
:10151000C01B0228B1D828684005F7D420780007FE
:1015200029D560690028D5F8940012D040F0010058
:10153000C5F89400FFF724FB074604E0FFF720FB03
:10154000C01B022899D8D5F894008007F6D512E080
:1015500000E120F00100C5F89400FFF711FB0746F9
:1015600005E000BFFFF70CFBC01B022885D8D5F8AB
:1015700094008007F6D42078400766D5A86D002730
:10158000C00008D4A86D40F08050A865A86D012760
:1015900000F08050009053480168C90512D40168DA
:1015A000814641F480710160FFF7EAFA804605E068
:1015B000FFF7E6FAA0EB080002286FD8D9F8000080
:1015C000C005F5D5A068012816D00528D5F89000EB
:1015D00017D020F00100C5F89000D5F8900020F059
:1015E000040000BFC5F89000A06841F28839C0B17E
:1015F000FFF7C6FA80460FE0D5F8900040F00100F2
:10160000F0E740F00400C5F89000F5E7FFF7B8FAFE
:10161000A0EB0801494541D8D5F890008007F5D5E1
:101620000EE0FFF7ADFA804606E000BFFFF7A8FA2C
:10163000A0EB0801494531D8D5F890008007F5D4D2
:101640001FB1A86D20F08050A865A06A38B30228A9
:101650000AD00C2E7ED0286820F080702860286880
:1016600010F0205F77D0AAE0E868E26A00F003019A
:1016700091422BD1216B00F0700209011039914287
:1016800024D1626B00F4FE41B1EB022F1ED1A26B9C
:1016900000F40031072A03D0012202E09DE089E036
:1016A0000022914212D1A18F00F4C00249084905DD
:1016B000A1F50011914209D194F8401000F0C060EA
:1016C00049084906A1F1007181425CD00C2E41D03D
:1016D000286809E000100240302C00081C0000209F
:1016E000140000200070004040017ED42868C00033
:1016F0007BD4286820F080702860FFF741FA064606
:1017000005E000BFFFF73CFA801B022865D8286877
:101710008001F7D4D4E90B016FF00F0202EB011145
:101720000843A18F5204490802EB4151626B41EA20
:101730000221084394F840104FF07E42490802EB22
:1017400041610843A16B090940EA4140E968284A20
:10175000114001E049E02EE00843E860286840F0CD
:1017600080702860E86840F08070E860FFF708FA51
:10177000044604E0FFF704FA001B02282DD828686D
:101780008001F7D52FE0286880012CD4286840F02C
:1017900080702860E86840F08070E860FFF7F0F93A
:1017A000044604E0FFF7ECF9001B022815D828686E
:1017B0008001F7D517E0E86820F00300E860E868EA
:1017C0000C490840E860FFF7DBF9044608E000BF79
:1017D000FFF7D6F9001B022802D90320BDE8F883E1
:1017E00028688001F4D40020F8E70120F6E7000023
:1017F0008C809DF9FFFFEEFE10B5401EB0F1807F9A
:1018000001D3012010BD4FF0E02460610F2160176B
:1018100000F03AFD0020A06107202061002010BDEB
:1018200010B5040002D0606F10B107E0012010BDB8
:10183000002084F87000204600F026F8242060671D
:101840002068016821F001010160204600F08EFB54
:101850000128ECD0606A10B1204600F0F7FA206849
:10186000416821F4904141602068816821F02A019B
:1018700081602068016841F0010101602046BDE8F7
:10188000104000F047BB000010B586B0044614219C
:101890006846FEF7D2FC1349206888421FD11248DF
:1018A000816D41F400318165816D01F40031059154
:1018B000C16C41F00101C164C06C694600F00100D7
:1018C00005900C200090022001900020029003203F
:1018D0000390072004904FF09040FFF713F806B0F4
:1018E00010BD000000440040001002402DE9F84304
:1018F0000446406F1F4616460D4620284FD1CDB1F5
:10190000C6B194F87000012849D0012084F8700015
:101910004FF00008C4F87C8021206067FFF730F9A1
:10192000A4F850608146A4F85260A068B0F5805FCA
:1019300003D004E00120BDE8F883206928B12E46D9
:101940005FF0000584F8708010E00026FAE780213F
:10195000204600F031FCB8B9C6B116F8010B216879
:101960000885B4F85200401EA4F85200B4F85200A2
:101970004B464FF0000200970028E8D14FF040019D
:10198000204600F019FC30B10320D4E735F8020BF3
:10199000C0F30800E3E7202060670020CBE70220C7
:1019A000C9E7FEE770B586B014216846FEF745FC2E
:1019B0001B48C16C41F00401C164C16C01F0040119
:1019C0000591C16C41F00101C164C06C4FF44075D8
:1019D00000F001004FF09046059000222946304665
:1019E000FFF7C8F800244FF40050CDE90004694621
:1019F0000C480294FEF786FF2020CDE900046946DA
:101A000030460294FEF77EFF01200095CDE90104E7
:101A1000694630460394FEF775FF06B070BD0000BE
:101A200000100240000800480D4810B50B49016045
:101A30004FF4E1314160002181600C22C160C0E9B6
:101A400004128161C16101624162FFF7E9FE002871
:101A500003D0BDE81040FEF741BF10BD0044004078
:101A600054000020FEE7FEE700B585B04FF400719A
:101A7000009100210391029110B1012803D003E0ED
:101A80000120019000E0019169464FF09040FEF77F
:101A900039FF05B000BD0000044810B5418840681A
:101AA000FFF763F800F0010010BD00000000002007
:101AB000020003484188406800D00122FFF75AB86D
:101AC00000000020704700002DE9F041444C05461D
:101AD0008846E0680026810728680DD0E16801F09B
:101AE0000301814216D1A8B1E0686968C0F3021011
:101AF000401C88420ED120E0012804D0022805D0E5
:101B0000032807D108E02168890701E02168490519
:101B1000002907DB01265FE02168890302D42168E0
:101B20004903F5E7E1686A686FF00F0321F073017C
:101B300003EB021211430143E160206820F0806052
:101B40002060FFF71DF8074605E000BFFFF718F813
:101B5000C01B022837D820680001F7D4B8F1000F65
:101B600018D0B8F1010F1ED0287D4FF07E414008FB
:101B700001EB4060A96840EA01202169194A11403F
:101B800008432061206840F080602060FEF7F8FF85
:101B900007461AE0A868E9680002090940EA4140DE
:101BA0002169114AEBE7288A1049400801EB4050AF
:101BB000A96840EA012021690D4AE0E7FEF7E0FF4D
:101BC000C01B022801D9032606E020680001F5D5D4
:101BD0002069A969084320613046BDE8F081000012
:101BE00000100240FF80FFF9FF80FDFF0000E0FFD2
:101BF000FF809FFF2DE9F0413D4C06468846E06896
:101C00000025810730680DD0E16801F003018142B1
:101C100016D1A8B1E0687168C0F30210401C884278
:101C20000ED120E0012804D0022805D0032807D1D6
:101C300008E02168890701E021684905002907DBE0
:101C4000012551E02168890302D421684903F5E7A1
:101C5000E16872686FF00F0321F0730103EB021269
:101C600011430143E160206820F080502060FEF7BE
:101C700087FF074605E000BFFEF782FFC01B022872
:101C800029D820688000F7D4B8F1000F15D0307C37
:101C90004FF07E41400801EB4060B16840EA01200E
:101CA0006169144A114008436061206840F0805027
:101CB0002060FEF765FF07460FE0B068F16800029C
:101CC000090940EA414061690B4AEBE7FEF758FF1A
:101CD000C01B022801D9032506E020688000F5D545
:101CE00060697169084360612846BDE8F0810000C1
:101CF00000100240FF80FFF9FF80FDFFF8B51C4D8A
:101D000006460024A86DC00002D5FEF7FBFF0DE0DB
:101D1000A86D40F08050A865A86D00F0805000903C
:101D2000FEF7F0FFA96D21F08051A965B0F5007FA5
:101D300004D0802E07D94FF003040AE0802E08D982
:101D4000A02E01D804E001D1022402E0702E00D1BF
:101D500001240848016821F007012143016000685F
:101D600000F00700A04201D00120F8BD0020F8BD1E
:101D700000100240002002407047FEF707BF30B558
:101D8000B9B0442122A8FEF758FA142133A8FEF76F
:101D900054FA88216846FEF750FA0224E0012590A3
:101DA0001020229426902C940120CDE92D400A2069
:101DB0002F900720CDE9300422A83294FFF788FA4B
:101DC00008B172B6FEE70F20002533900320CDE95D
:101DD00034053695042133A83795FFF773F908B118
:101DE00072B6FEE70F9568460094FEF793FF08B1C0
:101DF00072B6FEE74FF40070FEF750FF002801D0E6
:101E000072B6FEE739B030BD0D48016841F470018B
:101E100001600C48016841F001010160002181600E
:101E20000268094B1A4002608214C260026822F400
:101E30008022026081610249C003803908607047D6
:101E400088ED00E000100240FFFFF6EA90F8241051
:101E5000C90706D001684A68836A22F400321A432F
:101E60004A6090F82410890706D501684A68C36A59
:101E700022F480321A434A6090F82410490706D5AC
:101E800001684A68036B22F480221A434A6090F882
:101E90002410090706D501684A68436B22F4004202
:101EA0001A434A6090F82410C90606D501688A686A
:101EB000836B22F480521A438A6090F824108906BA
:101EC00006D501688A68C36B22F400521A438A60FF
:101ED00090F82410490611D501684A68036C22F471
:101EE00080121A434A60016CB1F5801F06D1016867
:101EF0004A68436C22F4C0021A434A6090F82410E6
:101F0000090606D501684A68806C22F40022024363
:101F10004A607047F8B500260446C667FEF730FEF3
:101F20000546206800686FF07E47000708D52B46FD
:101F300000224FF400112046009700F03DF960B9EF
:101F40002068006840070AD52B4600224FF4800124
:101F50002046009700F030F908B10320F8BD20209A
:101F60006067A06784F870600020F8BD2DE9F0413B
:101F70000446016880682269E369104362690025AC
:101F80001A431043824F0A68824B1A4002430A6088
:101F900020684168E26821F44051114341602168A2
:101FA000A069B94201D0226A10438A6822F43062E3
:101FB00002438A607849226878488A420DD1D0F875
:101FC000880010F0030006D0012866D0022854D003
:101FD000032851D163E001204FE071498A420BD1BF
:101FE000D0F8880010F00C0047D0042845D008280D
:101FF00051D00C2840D152E06A498A420BD1D0F826
:10200000880010F0300038D0102846D0202842D068
:10201000302831D143E064498A420BD1D0F888009E
:1020200010F0C00029D0402837D0802833D0C028F5
:1020300022D134E05D498A420ED1D0F8880010F4F4
:1020400040701AD0B0F5807F27D0B0F5007F22D045
:10205000B0F5407F10D122E0BA420DD1D0F888000F
:1020600010F4406009D0B0F5806F16D0B0F5006F65
:1020700011D0B0F5406F12D010204D4B00264FF418
:102080000041BA422ED160B1022813D004280BD0EF
:10209000082874D10DE00220EFE70420EDE70820C6
:1020A000EBE7FFF79FF801E0FFF7C0F8030001D16D
:1020B00069E00B46626802EB420098425FD8B3EBDE
:1020C000023F5CD8190E180273084FEA3207C01994
:1020D00059410023FEF776F8364AA0F54071914247
:1020E0004FD94CE0E2694FF6EF778A4228D10928B0
:1020F00045D2DFE800F0050811440D4444441000C7
:10210000FFF770F801E0FFF77FF8030004D13AE031
:10211000FFF78CF8F9E70B466068590001EB5001B6
:10212000B1FBF0F080B2A0F11001B94227D84FF610
:10213000F0710140C0F3420001432068C16022E019
:1021400009281CD2DFE800F00508111B0D1B1B1B22
:102150001000FFF747F801E0FFF756F8030004D13D
:1021600011E0FFF763F8F9E70B46606803EB5001F5
:10217000B1FBF0F080B2A0F11001B94201D9012504
:1021800001E02168C860266628466666BDE8F081E1
:1021900000800040F369FFEF00380140001002406A
:1021A0000044004000480040004C00400050004007
:1021B0000024F400FFFC0F002DE9F0479A46174673
:1021C0000E4604464FF000094FF02008089D39E004
:1021D000681C37D0FEF7D4FCA0EB0A00A84222D836
:1021E0000DB32068016849072CD5C069C0430005BC
:1021F00028D421684FF4006008622068016821F447
:10220000D07101602068816821F001018160C4F80B
:102210007480C4F87880C4F87C8000BF84F8709023
:102220000320BDE8F0872068016821F4D0710160C7
:102230002068816821F001018160C4F87480C4F8CD
:102240007880EBE72068C06936EA000004D00020FF
:10225000B842BDD00020E4E70120F9E7FEE7000026
:102260000FB4084B10B504A902AA039800F0F2F8C5
:10227000044602A9002000F073FC204610BC5DF863
:1022800014FB0000612B00080907090E002804DB7D
:1022900000F1E02080F80014704700F00F0000F11A
:1022A000E02080F8141D704702E008C8121F08C122
:1022B000002AFAD170477047002001E001C1121FC7
:1022C000002AFBD1704700002DE9FF5F82B000219A
:1022D000DDE90430020DDDF840B0034318D044F6C8
:1022E0001050A2F2FF3242431514119801281FD05A
:1022F000A5EB0B00401C5FEA000A4FF000064E4FB2
:10230000DFF83891B046504615D5CAF1000413E005
:10231000119801244AA3012801D16FEA0B01029808
:10232000119AC0E90031C0E9024206B000F08EB84F
:10233000CBF10000DFE704460021404A491842EB98
:102340000450CDE9001012E0E00707D032463B46CA
:1023500040464946FEF77AF88046894632463B4673
:1023600010461946FEF772F806460F466410002C18
:10237000EAD1DDE90401DDE90023BAF1000F06DA54
:10238000FEF764F842464B46FEF760F805E0FEF7BC
:10239000D2F842464B46FEF7CEF804460E460022DF
:1023A000284BFEF74FF903D84FF0FF30014607E006
:1023B0000022254B20463146FDF799FFFEF72AF90A
:1023C000102409E0002C0ADB0A220023FDF7FAFEA4
:1023D000039B30321A55641E50EA0102F2D1641C8C
:1023E000039AC4F111031444119A012A03D0012263
:1023F00008430DD10AE0084304D000204FF0110B30
:10240000119072E7A3EB0B056D1E0DE05B4504DD3B
:102410004FF0000205F1010504E003DA4FF000027D
:10242000A5F10105002AECD002981199C0E902310A
:10243000C0E9004579E70000000014400000F03FCB
:10244000300000000000F0430000E03F30BCBDE879
:10245000C09F00002DE9FF4F95B09A46884606467A
:102460000025EEE1252877D100242746F94A0121ED
:10247000039400E0044316F8013F203B01FA03F007
:102480001042F7D130782A2811D06FF02F0330781E
:10249000A0F13002092A16D8039A44F0020402EB94
:1024A000820203EB42021044761C0390EFE758F8D7
:1024B000042B0392002A03DA504244F400540390A0
:1024C00044F00204761C30782E2816D116F8010F3D
:1024D00044F004042A280DD06FF02F023078A0F1C8
:1024E0003003092B09D807EB870302EB4303C71816
:1024F000761CF3E758F8047B761C30786C280FD0F4
:1025000006DC4C2817D068280DD06A2814D104E0C6
:10251000742810D07A280FD10DE044F400140AE09A
:1025200044F4801401E044F440147278824202D1F1
:1025300004F58014761C761C307866280BD013DCEA
:10254000582877D009DC002875D04528F6D04628D1
:10255000F4D047281AD193E118E0632835D06428D5
:1025600079D0652812D18BE1702873D008DC6728F8
:10257000F1D069286FD06E280DD06F2806D1ACE05D
:1025800073282CD0752874D0782853D052461799C8
:1025900090476D1C54E1C4F30250022809D003286F
:1025A0000DD0D8F8001004280DD00D6008F10408F3
:1025B00046E1D8F80010EA17C1E90052F6E7D8F86A
:1025C00000100D80F2E70D70F0E718F8041B8DF88D
:1025D000001000208DF80100EB46012003E058F8C0
:1025E00004BB4FF0FF3061074FF0000102D40DE053
:1025F00009F101018946B9420FDA8145F8DB1BF880
:1026000009100029F4D108E009F10101894681424D
:10261000FADB1BF809100029F6D103985346A0EB0A
:10262000090721463846179A00F083FA284400EB40
:10263000090507E044E008E10DE01BF8010B5246F4
:1026400017999047B9F10109F7D253462146384608
:10265000179AF2E039E00A21C4F302524FF0000B5E
:102660000091022A06D058F8040BC117032A09D09A
:102670000AE023E008F1070020F00702F2E8020177
:10268000904605E000B2C117042A01D140B2C1173B
:10269000002906DA0A460021404261EB02012D22A0
:1026A00002E0220504D52B228DF80420012203E04C
:1026B000E20701D02022F7E7914657E00A2100E027
:1026C00010214FF0000B00910BE010214FF0000B98
:1026D00044F004040827009103E008204FF0000BA9
:1026E0000090C4F30252022A05D058F8040B0021CE
:1026F000032A08D008E008F1070020F00702F2E8FA
:102700000201904603E080B2042A00D1C0B24FF02B
:10271000000922072AD53278702A07D0DDF800C0D8
:102720008CF0100C5CEA0B0C05D00EE040228DF80A
:102730000420012208E050EA010306D030238DF87E
:1027400004308DF8052002229146009B83F0080397
:1027500053EA0B030AD150EA010201D1620705D501
:1027600030228DF804204FF001097F1E3278582A5C
:1027700004D039A20C920CAA02920BE03BA2F9E71A
:102780005B46009AFDF71EFD0C9B9B5C029A521E55
:102790000292137050EA0102F2D1029804A9081AB9
:1027A00000F1200B600702D524F4803400E00127FB
:1027B0005F4502DDA7EB0B0000E0002000EB0B0102
:1027C000009003984944401A0390E00306D453460E
:1027D0002146179A039800F0ACF90544002706E05B
:1027E00001A85246C05D179990476D1C7F1C4F454C
:1027F000F6DBE0030CD553462146179A039800F008
:1028000098F9054404E030205246179990476D1C12
:102810000099481E00900029F5DC08E00298029912
:1028200052460078491C0291179990476D1CBBF1E4
:102830000001ABF1010BF1DC5BE100F068F905444C
:10284000761C307800287FF40DAE19B0284600F0D1
:102850005BB9000009280100303132333435363796
:1028600038396162636465660000000030313233DC
:10287000343536373839414243444546000000007C
:10288000600700D4062708F1070020F00700F0E8F1
:102890000223804603F0004C5FEA0C0001D097A0B1
:1028A00009E0200501D596A005E0E00701D095A03C
:1028B00001E0AFF24C001390307823F0004365281C
:1028C0000CD006DC452809D046281DD047287FD1EA
:1028D0003BE0662818D067287AD136E00021112F16
:1028E00001DB112000E0781CCDE9000104A90CA84F
:1028F000FFF7EAFCDDE90D010C9A4FF0000B07F140
:102900000109109200914EE04FF000400097CDE990
:10291000011004A90CA8FFF7D7FCDDE90D020C9B00
:102920000F994FF0000B91461093009211B9791C4A
:1029300000EB0109B7EB090003D4C0F1FF3B07F13D
:102940000109A9EB0700019042E0012F00DA0127FD
:102950000021112F01DD112000E03846CDE90001F2
:1029600004A90CA8FFF7B0FCDDE90D010C9A009159
:102970004FF0000BB946109221070FD4009A4A4538
:1029800003DA914601E0A9F10109B9F1010F05DD72
:10299000109AA9F10101515C3029F4D0B84202DA51
:1029A00010F1040F03DA0121CDE9011010E0002835
:1029B00003DC8344A9EB000102E0411C494500DD32
:1029C0008946A0EB0B00401C01904FF000400290A4
:1029D000200705D40198484502DB4FF0FF300190F5
:1029E00000208DF84B0002980DF14B07B0F1004F1D
:1029F00025D002200C902B200D90029800280CDA94
:102A0000404202902D200D9007E00A210298FDF728
:102A100039FC3031029007F8011D0C99481E0C90CA
:102A20000029F2DC02980028EFD1791E0D98087079
:102A3000307800F0200040F0450007F8020D11A8A2
:102A4000C01BC01D02901398007800B1012000EB5C
:102A50000901019801EBE071029801440398401AC2
:102A6000401E0390E00306D453462146179A03986C
:102A700000F05FF805441398007818B15246179992
:102A800090476D1CE00323D553462146179A0398BF
:102A900000F04FF805441BE0BBF1000F07DB009886
:102AA000584504DD1098179910F80B0001E01799AC
:102AB00030205246904701980BF1010B401E05F162
:102AC0000105019004D12E205246179990476D1CA4
:102AD000B9F10001A9F10109DEDC05E017F8010BED
:102AE0005246179990476D1C0299481E0290002982
:102AF000F4DC53462146179A03989EE62D00000009
:102B00002B0000002000000030BCBDE8C08F2DE984
:102B1000F041044600251E461746880404D405E00B
:102B200039462020B0476D1C641EF9D52846BDE803
:102B3000F0812DE9F041044600251E469046C80369
:102B400001D5302700E02027880404D505E0414660
:102B50003846B0476D1C641EF9D52846BDE8F081A3
:102B60000A68531C0B601070704700001CB5FEF71C
:102B700015F8FFF704F9FEF715FFFEF755FF4FF4C0
:102B800000714FF09040FDF73BFE4FF47A77154906
:102B9000081FFDF7F1FDA0B1124E361F7068FDF75A
:102BA0005EFB04460D463068FDF759FB41EC100B07
:102BB0000DA153EC102B1848CDE90045FFF750FB51
:102BC00003E016A11448FFF74BFB1348FDF740FB49
:102BD00082B20A2310491548FEF788FE3846FDF7F1
:102BE0007FFED4E70C0000200D0A54656D7020288C
:102BF0004329203D0920252E31660D0A48756D694F
:102C0000646974792028252529203D0920252E3145
:102C10006625250D0A000000200000200D0A435201
:102C200043204572726F72210D0A0000540000208B
:102C3000000000000000000001020304060708096C
:102C4000A0860100400D0300801A060000350C002C
:102C500040420F0080841E0000093D0000127A00EF
:102C60000024F40000366E010048E801006CDC022C
:102C70000000000001020304982C0008000000205E
:102C800020000000A8220008B82C00082000002026
:102C9000B8040000B8220008000000000000000096
:102CA0000000000000000000010000001000000013
:082CB0000000000000093D00D6
:040000050800018965
:00000001FF
